:020000020000FC
:1000000052985A9A53985B9A54985C9A55985D9A6C
:1000100056985E9A219A2998229A2A98239A2B9880
:10002000249A2C9A2F938F939F9326E98EE39CE931
:100030000197F1F72A95D1F700009F918F912F91A9
:100040002F938F939F9326E98EE39CE90197F1F715
:100050002A95D1F700009F918F912F912C98299A82
:100060002A9A2B9A2F938F939F9328EC8EE39CE9E7
:100070000197F1F72A95D1F700009F918F912F9169
:1000800029982A982B984E9B09C04D9B17C04C9BD2
:1000900011C04B9B0BC04A9B05C0F5CF29982A98ED
:1000A0002B98F1CF299A2A9A2B98EDCF299A2A9842
:1000B0002B9AE9CF299A2A9A2B9AE5CF299A2A983E
:1000C0002B984E9BE0CF4D9BDECF4C9BDCCF4B9BC8
:1000D000DACF4A9BD8CF2F938F939F9322E38EE35F
:1000E0009CE90197F1F72A95D1F700009F918F9134
:1000F0002F914E9BC8CF4D9BC6CF4C9BC4CF4B9BE3
:10010000C2CF4A9BC0CF29982A9A2B984E9BBBCF2F
:100110004D9BB9CF4C9BB7CF4B9BB5CF4A9BB3CF31
:100120002F938F939F9322E38EE39CE90197F1F73E
:100130002A95D1F700009F918F912F914E9BA3CFCD
:100140004D9BA1CF4C9B9FCF4B9B9DCF4A9B9BCF61
:1001500029982A982B9A4E9B96CF4D9B94CF4C9BD7
:1001600092CF4B9B90CF4A9B8ECF2F938F939F9391
:1001700022E38EE39CE90197F1F72A95D1F700007D
:100180009F918F912F914E9B7ECF4D9B7CCF4C9B0F
:100190007ACF4B9B78CF4A9B76CF299A2A9A2B9875
:1001A0004E9B71CF4D9B6FCF4C9B6DCF4B9B6BCFBD
:1001B0004A9B69CF2F938F939F9322E38EE39CE911
:1001C0000197F1F72A95D1F700009F918F912F9118
:1001D0004E9B59CF4D9B57CF4C9B55CF4B9B53CFED
:1001E0004A9B51CF299A2A982B9A4E9B4CCF4D9BD4
:1001F0004ACF4C9B48CF4B9B46CF4A9B44CF2F9333
:100200008F939F9322E38EE39CE90197F1F72A9560
:10021000D1F700009F918F912F914E9B34CF4D9B32
:1002200032CF4C9B30CF4B9B2ECF4A9B2CCF299A61
:100230002A982B9A4E9B27CF4D9B25CF4C9B23CFA3
:100240004B9B21CF4A9B1FCF2F938F939F9322E3EA
:100250008EE39CE90197F1F72A95D1F700009F9171
:100260008F912F914E9B0FCF4D9B0DCF4C9B0BCF62
:100270004B9B09CF4A9B07CF299A2A9A2B9A4E9BD0
:1002800002CF4D9B00CF4C9BFECE4B9BFCCE4A9B9E
:10029000FACE2F938F939F9322E38EE39CE90197ED
:1002A000F1F72A95D1F700009F918F912F914E9BE6
:1002B000EACE4D9BE8CE4C9BE6CE4B9BE4CE4A9BD0
:1002C000E2CE29982A982B984E9BDDCE4D9BDBCE13
:1002D0004C9BD9CE4B9BD7CE4A9BD5CE2F938F9399
:1002E0009F9322E38EE39CE90197F1F72A95D1F7DA
:1002F00000009F918F912F914E9BC5CE4D9BC3CEF9
:0E0300004C9BC1CE4B9BBFCE4A9BBDCED7CEF1
:00000001FF
