:020000020000FC
:1000000052985A9A53985B9A54985C9A55985D9A6C
:1000100056985E9A219A2998229A2A98239A2B9880
:10002000249A2C9A2F938F939F9326E98EE39CE931
:100030000197F1F72A95D1F700009F918F912F91A9
:100040002F938F939F9326E98EE39CE90197F1F715
:100050002A95D1F700009F918F912F912C98299A82
:100060002A9A2B9A2F938F939F9328EC8EE39CE9E7
:100070000197F1F72A95D1F700009F918F912F9169
:1000800029982A982B984E9B09C04D9B27C04C9BC2
:1000900021C04B9B17C04A9B11C0F5CF29982A98C5
:1000A0002B98F1CF299A2A982B98EDCF29982A9A44
:1000B0002B98E9CF29982A982B9AE5CF299A2A9A42
:1000C0002B98E1CF299A2A982B9ADDCF29982A9A42
:1000D0002B9AD9CF299A2A9A2B9AD5CF299A2A983E
:1000E0002B984E9BD0CF4D9BCECF4C9BCCCF4B9BD8
:1000F000CACF4A9BC8CF2F938F939F9322E38EE35F
:100100009CE90197F1F72A95D1F700009F918F9113
:100110002F914E9BB8CF4D9BB6CF4C9BB4CF4B9BF2
:10012000B2CF4A9BB0CF29982A9A2B984E9BABCF3F
:100130004D9BA9CF4C9BA7CF4B9BA5CF4A9BA3CF51
:100140002F938F939F9322E38EE39CE90197F1F71E
:100150002A95D1F700009F918F912F914E9B93CFBD
:100160004D9B91CF4C9B8FCF4B9B8DCF4A9B8BCF81
:1001700029982A982B9A4E9B86CF4D9B84CF4C9BD7
:1001800082CF4B9B80CF4A9B7ECF2F938F939F93A1
:1001900022E38EE39CE90197F1F72A95D1F700005D
:1001A0009F918F912F914E9B6ECF4D9B6CCF4C9B0F
:1001B0006ACF4B9B68CF4A9B66CF299A2A9A2B9885
:1001C0004E9B61CF4D9B5FCF4C9B5DCF4B9B5BCFDD
:1001D0004A9B59CF2F938F939F9322E38EE39CE901
:1001E0000197F1F72A95D1F700009F918F912F91F8
:1001F0004E9B49CF4D9B47CF4C9B45CF4B9B43CF0D
:100200004A9B41CF299A2A982B9A4E9B3CCF4D9BD3
:100210003ACF4C9B38CF4B9B36CF4A9B34CF2F9352
:100220008F939F9322E38EE39CE90197F1F72A9540
:10023000D1F700009F918F912F914E9B24CF4D9B22
:1002400022CF4C9B20CF4B9B1ECF4A9B1CCF299A81
:100250002A982B9A4E9B17CF4D9B15CF4C9B13CFB3
:100260004B9B11CF4A9B0FCF2F938F939F9322E3EA
:100270008EE39CE90197F1F72A95D1F700009F9151
:100280008F912F914E9BFFCE4D9BFDCE4C9BFBCE75
:100290004B9BF9CE4A9BF7CE299A2A9A2B9A4E9BD2
:1002A000F2CE4D9BF0CE4C9BEECE4B9BECCE4A9BC0
:1002B000EACE2F938F939F9322E38EE39CE90197DD
:1002C000F1F72A95D1F700009F918F912F914E9BC6
:1002D000DACE4D9BD8CE4C9BD6CE4B9BD4CE4A9BF0
:1002E000D2CE29982A982B984E9BCDCE4D9BCBCE23
:1002F0004C9BC9CE4B9BC7CE4A9BC5CE2F938F93A9
:100300009F9322E38EE39CE90197F1F72A95D1F7B9
:1003100000009F918F912F914E9BB5CE4D9BB3CEF8
:0E0320004C9BB1CE4B9BAFCE4A9BADCED7CE01
:00000001FF
