:020000020000FC
:10000000519A59985098589A0F931F9307E610E009
:100010000093C4001093C50008E10093C10006E0FE
:100020000093C2001F910F91219A2998229A2A9831
:10003000239A2B98249A2C9A2F938F939F9326E997
:100040008EE39CE90197F1F72A95D1F700009F9183
:100050008F912F912F938F939F9326E98EE39CE9A5
:100060000197F1F72A95D1F700009F918F912F9179
:100070002C98299A2A9A2B9A2F938F939F9328EC46
:100080008EE39CE90197F1F72A95D1F700009F9143
:100090008F912F9129982A982B980F930091C00047
:1000A00007FFFCCF5091C6000F91513369F05233D6
:1000B00079F0533389F0543399F0553309F0EDCF8B
:1000C00029982A982B98E9CF299A2A9A2B98E5CF34
:1000D000299A2A982B9AE1CF299A2A9A2B9ADDCF2E
:1000E0000F930091C00007FFFCCF5091C6000F9105
:1000F0005133D9F25233C9F25333B9F25433A9F21E
:10010000553399F2299A2A982B982F938F939F937E
:1001100022E38EE39CE90197F1F72A95D1F70000DD
:100120009F918F912F9129982A9A2B982F938F9393
:100130009F9322E38EE39CE90197F1F72A95D1F78B
:1001400000009F918F912F9129982A982B9A2F9395
:100150008F939F9322E38EE39CE90197F1F72A9511
:10016000D1F700009F918F912F91299A2A9A2B986D
:100170002F938F939F9322E38EE39CE90197F1F7EE
:100180002A95D1F700009F918F912F91299A2A9853
:100190002B9A2F938F939F9322E38EE39CE90197F1
:1001A000F1F72A95D1F700009F918F912F9129980F
:1001B0002A9A2B9A2F938F939F9322E38EE39CE9A5
:1001C0000197F1F72A95D1F700009F918F912F9118
:1001D000299A2A9A2B9A2F938F939F9322E38EE347
:1001E0009CE90197F1F72A95D1F700009F918F9133
:1001F0002F9129982A982B980F930091C00007FF00
:10020000FCCF5091C6000F912F938F939F9322E3C1
:100210008EE39CE90197F1F72A95D1F700009F91B1
:060220008F912F915DCFCC
:00000001FF
