:100000000C9461000C947E000C947E000C947E0095
:100010000C947E000C947E000C947E000C947E0068
:100020000C947E000C947E000C947E000C947E0058
:100030000C947E000C947E000C947E000C947E0048
:100040000C949B010C947E000C947E000C947E001A
:100050000C947E000C947E000C947E000C947E0028
:100060000C947E000C947E00000000002400270009
:100070002A0000000000250028002B0000000000DE
:1000800023002600290004040404040404040202DA
:100090000202020203030303030301020408102007
:1000A0004080010204081020010204081020000012
:1000B0000008000201000003040700000000000027
:1000C000000011241FBECFEFD8E0DEBFCDBF11E08E
:1000D000A0E0B1E0EEE2F6E002C005900D92AA3099
:1000E000B107D9F721E0AAE0B1E001C01D92A33128
:1000F000B207E1F70E94E5010C9415030C9400008F
:10010000833081F028F4813099F08230A9F008958D
:100110008730A9F08830C9F08430B1F48091800034
:100120008F7D03C0809180008F7780938000089539
:1001300084B58F7784BD089584B58F7DFBCF809182
:10014000B0008F778093B00008958091B0008F7DCC
:10015000F9CFCF93DF93282F30E0F901E255FF4F1D
:100160008491F901E656FF4FD491F901EA57FF4F08
:10017000C491CC23A1F081110E948000EC2FF0E00B
:10018000EE0FFF1FE458FF4FA591B491EC91ED23C2
:1001900081E090E009F480E0DF91CF91089580E064
:1001A00090E0FACF1F93CF93DF93282F30E0F9012F
:1001B000E255FF4F8491F901E656FF4FD491F901C2
:1001C000EA57FF4FC491CC23A9F0162F81110E944A
:1001D0008000EC2FF0E0EE0FFF1FEE58FF4FA591CF
:1001E000B4918FB7F894EC91111108C0D095DE232B
:1001F000DC938FBFDF91CF911F910895DE2BF8CF55
:10020000CF93DF9390E0FC01E656FF4F24918A578D
:100210009F4FFC0184918823D1F090E0880F991FB3
:10022000FC01E859FF4FA591B491FC01EE58FF4F36
:10023000C591D491623071F49FB7F8943C91822FAC
:10024000809583238C93E8812E2B28839FBFDF9199
:10025000CF9108958FB7F894EC912E2B2C938FBFEC
:10026000F6CF3FB7F89480910F0190911001A091C3
:100270001101B091120126B5A89B05C02F3F19F0BE
:100280000196A11DB11D3FBFBA2FA92F982F882716
:10029000BC01CD01620F711D811D911D42E0660FF1
:1002A000771F881F991F4A95D1F708958F929F92C3
:1002B000AF92BF92CF92DF92EF92FF926B017C01DF
:1002C0000E9431014B015C01C114D104E104F1042D
:1002D000B9F00E943101681979098A099B09683EC1
:1002E00073408105910580F321E0C21AD108E1082D
:1002F000F10888EE880E83E0981EA11CB11CE4CFA3
:10030000FF90EF90DF90CF90BF90AF909F908F9035
:100310000895CF93DF93D62FC42F682F89E00E94D2
:10032000D2006D2F8AE00E94D2006C2F8BE0DF910B
:10033000CF910C94D2001F920F920FB60F921124FE
:100340002F933F938F939F93AF93BF9380910B0114
:1003500090910C01A0910D01B0910E0130910A0114
:1003600023E0230F2D3758F50196A11DB11D2093D1
:100370000A0180930B0190930C01A0930D01B0939F
:100380000E0180910F0190911001A0911101B09187
:1003900012010196A11DB11D80930F0190931001D0
:1003A000A0931101B0931201BF91AF919F918F91D2
:1003B0003F912F910F900FBE0F901F90189526E838
:1003C000230F0296A11DB11DD2CF789484B582600F
:1003D00084BD84B5816084BD85B5826085BD85B5E9
:1003E000816085BD80916E00816080936E00109267
:1003F00081008091810082608093810080918100E2
:100400008160809381008091800081608093800072
:100410008091B10084608093B1008091B0008160D0
:100420008093B00080917A00846080937A008091FC
:100430007A00826080937A0080917A008160809354
:100440007A0080917A00806880937A001092C100CF
:1004500061E089E00E94000161E08AE00E94000101
:1004600061E08BE00E940001C0E0D1E0888122962B
:1004700062E00E94000181E0CA30D807B9F761E06C
:1004800087E00E94000161E087E00E94D20068EBF3
:100490007BE080E090E00E94560160E087E00E94EF
:1004A000D20041E050E061E070E081E090E00E9425
:1004B000890160ED77E080E090E00E94560150E015
:1004C00040E070E060E090E080E00E94890100E0A0
:1004D00010E082E00E94A90050E040E0892B81F00A
:1004E00083E00E94A90041E050E070E060E0892BC9
:1004F00049F084E00E94A900892B49F441E050E0D2
:1005000061E070E081E090E00E9489017BC085E0BD
:100510000E94A900892B09F07CC0C5E0D0E050E022
:1005200040E070E060E090E080E00E94890164EFCC
:1005300071E080E090E00E94560141E050E070E000
:1005400060E090E080E00E94890164EF71E080E06B
:1005500090E00E94560150E040E061E070E090E0E1
:1005600080E00E94890164EF71E080E090E00E94E9
:10057000560141E050E061E070E090E080E00E94D0
:10058000890164EF71E080E090E00E94560150E044
:1005900040E070E060E081E090E00E94890164EF5B
:1005A00071E080E090E00E94560141E050E070E090
:1005B00060E081E090E00E94890164EF71E080E0FA
:1005C00090E00E94560150E040E061E070E081E080
:1005D00090E00E94890164EF71E080E090E00E9469
:1005E000560141E050E061E070E081E090E00E945F
:1005F000890164EF71E080E090E00E94560121974C
:1006000009F08DCF0115110509F463CF0E94000098
:1006100060CF86E00E94A900892BA1F750E040E05E
:0E06200070E060E090E080E06FCFF894FFCFD4
:0A062E0002000300040005000600AE
:00000001FF
